:020000002628B0
:100008007E1480312000911C2428911021009D101D
:10001800C0307B02031822287B08303EF000F10133
:100028002030F13D70088600710887001C088100A7
:100038000130F0007008FB079D14242820001F11D0
:100048007E10090027283030840020308500C03019
:10005800FE000030FF008B26FB012000B301B40135
:10006800B501B601B7017E102000E92C0034003438
:100078000034003400342E340034003406340034A4
:100088000634003414343E34143400342C343E34F2
:100098001434003412340834243400341C342A3420
:1000A8003434003404340234003400341C34223430
:1000B80000340034003422341C3400342A341C3414
:1000C8002A34003408343E340834003420341034E0
:1000D8000034003408340834083400340034203440
:1000E8000034003420341C34023400341C342234EC
:1000F8001C340034003404343E34003432342A349E
:10010800243400342A342A34143400340E340834A5
:100118003E3400342E342A34123400341C342A3449
:1001280012340034223412340E34003414342A3495
:100138001434003424342A341C3400340034143485
:1001480000340034203414340034003408341434B7
:100158002234003414341434143400342234143463
:100168000834003402342A34043400343A342A344B
:100178003E3400343C3412343C3400343E342A34A7
:10018800143400341C342234223400343E342234F3
:100198001C3400343E342A342A3400343E340A34C1
:1001A8000A3400341C3422343A3400343E340834DF
:1001B8003E34003422343E34223400342034223495
:1001C8001E3400343E340834343400343E34203491
:1001D800203400343E3404343E3400343E340C348D
:1001E80018343E343E3422343E3400343E340A342B
:1001F800043400341C3432342C3400343E340A3491
:100208003434003424342A341234003402343E3472
:10021800023400343E3420343E3400341E3420345A
:100228001E3400343E3410343E340034363408343E
:1002380036340034063438340634003432342A3440
:100248002634003400343E34223400341A343C342A
:100258001A34003422343E34003400340434023476
:10026800043400342034203420340034B501FF3005
:10027800F2007208B400B301C030330203189229A7
:100288003308303E860087012030873DFD3001026B
:10029800031858290230F2003308303E86008701DF
:1002A8002030873D720881073308303E8600870179
:1002B8002030873D0310810C0310810C3308303E39
:1002C800860087012030873D01083502031876290A
:1002D8003308303E860087012030873D0108F20050
:1002E8007208B5003308303E860087012030873D0C
:1002F8003408010203188A293308303E8600870132
:100308002030873D0108F2007208B4000130F20085
:100318007208B307C0303302031C44293408F200C2
:100328000130F236890B952935367207F3007308C8
:10033800F600B301C03033020318C2293308F200B3
:10034800F3012F30F4002030F5007208740786009E
:100358007308753D8700010876020318BD29330824
:10036800303E860087012030873D01087602031859
:10037800C2290130F2007208B3079E29C030330643
:10038800031DCC29B601FF30F2007208B300080043
:100398000130F2007208B307B601C0303302031807
:1003A800F9293308F200F3012F30F4002030F5006A
:1003B8007208740786007308753D87000108760285
:1003C8000318F0293308303E860087012030873D26
:1003D800010876020318F9290130F2007208B607FD
:1003E8000130F2007208B307D1293030F2007208E8
:1003F800B300C03033020318242A3308F200F30193
:100408002F30F4002030F500720874078600730856
:10041800753D87000108760203181C2A3308303E10
:10042800860087012030873D010876020318242AB8
:100438000130F2007208B307C0303302031C012AEE
:100448003030B3020800C12678309726003097264E
:10045800203097260130972621309726203097267E
:100468007F30972622309726003097260730972628
:10047800BC26C1267830972640309726A9015530EA
:1004880097260130A0002008A90708302902031C7C
:10049800432A3308013EA0002008AA003308603E22
:1004A800A000003003180130A1002108803A803CE8
:1004B800031D602A20082A020318E72A20002A08B8
:1004C800303E860087012030873D0108A0002008C3
:1004D800A6002A08A000A1012F30A2002030A30006
:1004E8002008220786002108233D87000108A40070
:1004F8002408A7002708260203189D2A2A08A00016
:10050800A1012F30A2002030A30020082207860076
:100518002108233D87000108A4002408A6002A0812
:10052800303E860087012030873D0108A000200862
:10053800A7004030A0002008A80028080319E22AD4
:10054800A501A9010310A50C28082602031CB12A3D
:1005580027082802031CB12AA5170C30A000200880
:10056800F2002808F925033A031DC22A331CBE2AC3
:100578002A18C12A331C2A18C22AA5170130A80232
:100588000130A0002008A90708302902031CA72A67
:100598001830F2000030F30033082A02F400F501A5
:1005A800031CF503F82372087304031DDF2A553072
:1005B800A0002008A50425089726A12A0130A0003C
:1005C8002008AA07522ABC260800C1267830972698
:1005D800003097262030972600309726213097261E
:1005E800003097261F30972622309726003097260E
:1005F80007309726BC26C1267830972640309726A4
:10060800B330F5008630F6006726AB30F50085304C
:10061800F6006726AA30F5008630F6006726CD304A
:10062800F5008630F600672620003708AE00AF01D7
:100638002E08F2002F08F3001830F4000030F500FF
:1006480037267308AD007208AC006825A130F500A4
:100658008630F600672600307F24350841250130B2
:100668007F2434084125CA30F5008630F600672615
:1006780020003608AE00AF012E08F2002F08F30064
:100688003708B000B1013008F4003108F50037260A
:100698007308AD007208AC006825BC260800250860
:1006A8002604031D5D2BC630F5008630F60067264C
:1006B8000800AB01862B2508260403198A2B0A306B
:1006C800A0000030A1002608A3002508A2001525D7
:1006D8002008303EA7002B08283E860087012708FF
:1006E80081000A30F2000030F3002608F5002508E2
:1006F800F400B5247308A6007208A5000130A7000D
:100708002708AB0703302B02031C5F2B03302B0297
:100718000318A12B2030A7002B08283E860087014C
:10072800270881000130A7002708AB078A2B2B0870
:10073800283E8600870101083D240130AB022B0AC0
:10074800031908009B2BA501A11FB12BA009A10922
:10075800A00A0319A10AA501A50AA31FBC2BA20977
:10076800A309A20A0319A30A0130F8007808A5060C
:10077800A601A701200821040319EB2BA401A40A50
:10078800A11BD02B0130A035A10D890BC72B01303F
:10079800F8007808A407C42B0130A635A70D890BEB
:1007A800D12B21082302031DDB2B20082202031C66
:1007B800E22B2008A2022108A33B26140130A1360F
:1007C800A00C890BE32B0130A402031DD02B2508B4
:1007D8000319F32BA609A709A60A0319A70A2708CC
:1007E800A1002608A0000800F801F51F022CF40952
:1007F800F509F40A0319F50AF801F80AF31F092C98
:10080800F209F309F20A0319F30A720873040319C7
:10081800302CF701F70AF31B1B2C0130F235F30DCE
:10082800890B122C0130F6007608F7070F2C730895
:100838007502031D212C72087402031C272C7208F0
:10084800F4027308F53B0130F336F20C890B282CBF
:100858000130F702031D1B2C78080319382CF40902
:10086800F509F40A0319F50A7508F3007408F2008B
:100878000800F40020307402031C462C5F30740218
:10088800031C482CF4014A2C2030F4020310F40D08
:100898000310F40D74083A3E840080300318013EBA
:1008A8008500000897260130F3007308F4077408E0
:1008B8003A3E840080300318013E850000089726E0
:1008C8000130F3007308F40774083A3E840080305E
:1008D8000318013E8500000897260130F3007308CD
:1008E800F40774083A3E840080300318013E8500FE
:1008F800000897260800F4000310F40D0310F40D07
:1009080074088F3E840085300318013E8500000876
:1009180097260130F3007308F40774088F3E8400AB
:1009280085300318013E8500000897260130F30042
:100938007308F40774088F3E840085300318013E5D
:100948008500000897260130F3007308F40774083F
:100958008F3E840085300318013E850000089726E5
:100968000800F701F801720873040319E42CF9016F
:10097800F90AF31BC92C0130F235F30D890BC02C91
:100988000130F6007608F907BD2C0130F735F80D6F
:10099800890BCA2C73087502031DD42C72087402C3
:1009A800031CDB2C7208F4027308F53B7714013042
:1009B800F336F20C890BDC2C0130F902031DC92C2B
:1009C8007808F3007708F20008007926D82552261F
:1009D80030302000B2003208B70018263A21360815
:1009E800031DFC2CEF3037020318122D1030042D94
:1009F80061303602031C082D370A0319122D013005
:100A0800B2003208B707122D503036020318122DE3
:100A180009303702031C122D0130B702E9222722C0
:100A2800F12C2008210403193C2DA401A40AA11BC0
:100A3800272D0130A035A10D890B1E2D0130FA009C
:100A48007A08A4071B2D21082302031D2D2D200839
:100A58002202031C332D2008A2022108A33B0130E7
:100A6800A136A00C890B342D0130A402031D272DBB
:100A78002308A1002208A0000800AA003A303D245B
:100A88006430A0000030A1002A08A800A9012808A5
:100A9800F2002908F3004F30F4000030F500372643
:100AA8007308A3007208A200A7232108AC0020083D
:100AB800AB002C08A6002B08A500B425A630F5002D
:100AC8008630F6006726080003302D02E830031947
:100AD8002C020318762D2D08A6002C08A5005323F8
:100AE8000530892D6430F2000030F3002D08F50040
:100AF8002C08F400B5247308AD007208AC002D086A
:100B0800A6002C08A500B42503307F2404307F24D8
:100B180020303D24080004343E34043400341034BA
:100B28003E34103400343E341034283400343C341D
:100B38003C343834003428343434143400347C34AD
:100B480020343C340034243434342C3400345334CA
:100B580043344F3450344534203420342034003466
:100B68000A30A0000030A1000A30F2000030F30083
:100B78002608F5002508F400B5247308A3007208B8
:100B8800A20015252008303E3D242E303D240A3091
:100B9800A0000030A1002608A3002508A200152502
:100BA8002008303E3D24080023008C1221008C16BA
:100BB80024008C1618303D00950005303C00A0003C
:100BC80023000C1121000C1524000C1519303D00D0
:100BD800920002303C00A1002400940108309500E6
:100BE80096011330920095160800F5000830F300BE
:100BF8007308F600F7017508F3000730F336890B20
:100C0800022E77357304F4007408F7000310F50D0D
:100C180072087702031C122E7208F7020130F602DE
:100C2800031DFF2D7708080020003708FF3E9E00AF
:100C3800FB01C0307B0203182D2E7B08303E860056
:100C480087012030873D81010130F2007208FB07DF
:100C58001D2EFB012000111321009D1420001F15DB
:100C68001F1D0800342EF601F701721C3F2E740870
:100C7800F6077508F73D0130F435F50D890B402E60
:100C88000130F336F20C890B452E72087304031DEC
:100C9800392E7708F3007608F2000800C12678306C
:100CA8009726003097268D30972614309726813066
:100CB8009726FF309726C8309726A1309726AF3061
:100CC8009726BC260800750884007608850012005F
:100CD80003190800750884007608850000083D247B
:100CE8000130F5070030F63D672E23000C16210071
:100CF8000C1610309D0020309E001D140930200075
:100D08009F009110210091140B178B1708006400A5
:100D1800800101310130FE020030FF3B7F087E0474
:100D2800031900348C2EF20020009111720824005F
:100D380091002000911908009D2E59343A3431341D
:100D48002E34303456342034203400342D342D34AD
:100D58002D342D342D342D342D34203400344F349B
:100D68005334433449344C344C344F3420340034F5
:100D780024001615161D0800BE2E24001614161C75
:100D88000800C32E203420343034003450343A3430
:080D9800003458343A340034F1
:020000040001F9
:08000000FF3FFF3FFF3FFF3F00
:08000E008C3FF33FFF3FFF3F71
:00000001FF
