:020000002628B0
:100008007E1480312000911C2428911021009D101D
:10001800C0307B02031822287B08303EF000F10133
:100028002030F13D70088600710887001C088100A7
:100038000130F0007008FB079D14242820001F11D0
:100048007E10090027283030840020308500C03019
:10005800FE000030FF006F26FB012000B401B5014F
:10006800B601B701B8017E102000412C00340034DD
:100078000034003400342E340034003406340034A4
:100088000634003414343E34143400342C343E34F2
:100098001434003412340834243400341C342A3420
:1000A8003434003404340234003400341C34223430
:1000B80000340034003422341C3400342A341C3414
:1000C8002A34003408343E340834003420341034E0
:1000D8000034003408340834083400340034203440
:1000E8000034003420341C34023400341C342234EC
:1000F8001C340034003404343E34003432342A349E
:10010800243400342A342A34143400340E340834A5
:100118003E3400342E342A34123400341C342A3449
:1001280012340034223412340E34003414342A3495
:100138001434003424342A341C3400340034143485
:1001480000340034203414340034003408341434B7
:100158002234003414341434143400342234143463
:100168000834003402342A34043400343A342A344B
:100178003E3400343C3412343C3400343E342A34A7
:10018800143400341C342234223400343E342234F3
:100198001C3400343E342A342A3400343E340A34C1
:1001A8000A3400341C3422343A3400343E340834DF
:1001B8003E34003422343E34223400342034223495
:1001C8001E3400343E340834343400343E34203491
:1001D800203400343E3404343E3400343E340C348D
:1001E80018343E343E3422343E3400343E340A342B
:1001F800043400341C3432342C3400343E340A3491
:100208003434003424342A341234003402343E3472
:10021800023400343E3420343E3400341E3420345A
:100228001E3400343E3410343E340034363408343E
:1002380036340034063438340634003432342A3440
:100248002634003400343E34223400341A343C342A
:100258001A34003422343E34003400340434023476
:10026800043400342034203420340034B601FF3004
:10027800F2007208B500B401C030340203189229A4
:100288003408303E860087012030873DFD3001026A
:10029800031858290230F2003408303E86008701DE
:1002A8002030873D720881073408303E8600870178
:1002B8002030873D0310810C0310810C3408303E38
:1002C800860087012030873D010836020318762909
:1002D8003408303E860087012030873D0108F2004F
:1002E8007208B6003408303E860087012030873D0A
:1002F8003508010203188A293408303E8600870130
:100308002030873D0108F2007208B5000130F20084
:100318007208B407C0303402031C44293508F200BF
:100328000130F236890B952936367207F3007308C7
:10033800F600B401C03034020318C2293408F200B0
:10034800F3012F30F4002030F5007208740786009E
:100358007308753D8700010876020318BD29340823
:10036800303E860087012030873D01087602031859
:10037800C2290130F2007208B4079E29C030340641
:10038800031DC929B701B40108000130F200720841
:10039800B407B701C03034020318F6293408F20054
:1003A800F3012F30F4002030F5007208740786003E
:1003B8007308753D8700010876020318ED29340893
:1003C800303E860087012030873D010876020318F9
:1003D800F6290130F2007208B7070130F2007208FE
:1003E800B407CE293030F2007208B400C0303402AD
:1003F8000318212A3408F200F3012F30F4002030CA
:10040800F5007208740786007308753D87000108B7
:1004180076020318192A3408303E860087012030F6
:10042800873D010876020318212A0130F20072087C
:10043800B407C0303402031CFE293030B40208006F
:10044800A52678307B2600307B2620307B2601309D
:100458007B2621307B2620307B267F307B2622306E
:100468007B2600307B2607307B26A026A526783001
:100478007B2640307B26AE0155307B260130A0001C
:100488002008AE0708302E02031C402A0130A000C5
:100498002008B407A801AD01AD0A1830A000200853
:1004A800F2002D08CC25003A031D5C2A01305D2A94
:1004B8000030A1002108A5003408303E86008701DD
:1004C8002030873D0108A0002008A9003408A000BA
:1004D800A1012F30A2002030A300200822078600A7
:1004E8002108233D87000108A4002408AA002A083F
:1004F800290203189A2A3408A000A1012F30A2006B
:100508002030A3002008220786002108233D870009
:100518000108A4002408A9003408303E8600870199
:100528002030873D0108A0002008AA000130A00063
:100538002008B407AC01AE01F830A0002008F20092
:100548002C085E26A1002E0821023F3EA2002208A8
:10055800AB00A7012D1CBB2A0C30A0002008F2001C
:100568002B08CC25003A031DBB2AA701A70A270898
:10057800A0002008A6000310A80C2B082902031CC1
:10058800C92A2A082B020318CC2A26080319CD2ABF
:10059800A8170130A0002008AE0708302E02031C5F
:1005A800A02A25080319DC2A5530A0002008A80431
:1005B80028087B260130A0002008AC0708302C0250
:1005C800031C9F2A0130A0002008AD0760302D02CF
:1005D800031C512AA0260800A52678307B26003067
:1005E8007B2620307B2600307B2621307B2600307E
:1005F8007B261F307B2622307B2600307B26073067
:100608007B26A026A52678307B2640307B2697308F
:10061800F5008630F6003A267E30F5008530F60083
:100628003A268E30F5008630F6003A26B130F500CD
:100638008630F6003A2620003808AE00AF012E08B2
:10064800F2002F08F3001830F4000030F5000A26F5
:100658007308AD007208AC003B258530F500863084
:10066800F6003A2600307E243608142501307E2410
:1006780035081425AE30F5008630F6003A262000FD
:100688003708AE00AF012E08F2002F08F300380833
:10069800B000B1013008F4003108F5000A267308EB
:1006A800AD007208AC003B25A026080025082604EA
:1006B800031D642BAA30F5008630F6003A260800A0
:1006C800AB018D2B250826040319912B0A30A000B5
:1006D8000030A1002608A3002508A200E82420086D
:1006E800303EA7002B08283E860087012708810096
:1006F8000A30F2000030F3002608F5002508F4005F
:10070800B4247308A6007208A5000130A7002708C2
:10071800AB0703302B02031C662B03302B02031894
:10072800A82B2030A7002B08283E86008701270821
:1007380081000130A7002708AB07912B2B08283E22
:10074800860087010108FF230130AB022B0A031939
:100758000800A22BA501A11FB82BA009A109A00A76
:100768000319A10AA501A50AA31FC32BA209A3095E
:10077800A20A0319A30A0130F8007808A506A60101
:10078800A701200821040319F22BA401A40AA11B24
:10079800D72B0130A035A10D890BCE2B0130F800E5
:1007A8007808A407CB2B0130A635A70D890BD82BC9
:1007B80021082302031DE22B20082202031CE92B37
:1007C8002008A2022108A33B26140130A136A00C60
:1007D800890BEA2B0130A402031DD72B2508031926
:1007E800FA2BA609A709A60A0319A70A2708A10030
:1007F8002608A0000800F40020307402031C082C0E
:100808005F307402031C0A2CF4010C2C2030F40213
:100818000310F40D0310F40D74083A3E8400803080
:100828000318013E850000087B260130F300730899
:10083800F40774083A3E840080300318013E8500AE
:1008480000087B260130F3007308F40774083A3E69
:10085800840080300318013E850000087B260130A3
:10086800F3007308F40774083A3E840080300318D4
:10087800013E850000087B2608004C26AB25053084
:100888002000B3000F30B200F130890B492CB20BB5
:10089800492CB30B492C252614302000B20032080D
:1008A800B800EB253A21F02220003708031D662CFA
:1008B800EF30380203187C2C1B303802031C7C2CC8
:1008C80010306E2C31303702031C722C380A031991
:1008D8007C2C0130B2003208B8077C2C103037026B
:1008E80003187C2C0B303802031C7C2C0130B80216
:1008F8002422552CF4000310F40D0310F40D740891
:10090800623E840085300318013E850000087B267E
:100918000130F3007308F4077408623E84008530E0
:100928000318013E850000087B260130F300730898
:10093800F4077408623E840085300318013E850080
:1009480000087B260130F3007308F4077408623E40
:10095800840085300318013E850000087B260800C6
:10096800F701F801720873040319E32CF901F90A75
:10097800F31BC82C0130F235F30D890BBF2C013065
:10098800F6007608F907BC2C0130F735F80D890B0D
:10099800C92C73087502031DD32C72087402031C3A
:1009A800DA2C7208F4027308F53B77140130F33639
:1009B800F20C890BDB2C0130F902031DC82C7808D6
:1009C800F3007708F20008002008210403190F2D0E
:1009D800A401A40AA11BFA2C0130A035A10D890B92
:1009E800F12C0130FA007A08A407EE2C2108230222
:1009F800031D002D20082202031C062D2008A20238
:100A08002108A33B0130A136A00C890B072D01302A
:100A1800A402031DFA2C2308A1002208A000080044
:100A2800AA003A30FF236430A0000030A1002A0851
:100A3800A800A9012808F2002908F3004F30F400A3
:100A48000030F5000A267308A3007208A200AE233E
:100A58002108AC002008AB002C08A6002B08A50034
:100A680087258A30F5008630F6003A2608000330DC
:100A78002D02E83003192C020318492D2D08A60071
:100A88002C08A5005A2305305C2D6430F200003094
:100A9800F3002D08F5002C08F400B4247308AD0009
:100AA8007208AC002D08A6002C08A5008725033085
:100AB8007E2404307E242030FF23080004343E3492
:100AC8000434003410343E34103400343E341034CE
:100AD800283400343C343C3438340034283434343A
:100AE800143400347C3420343C340034243434341A
:100AF8002C340034533443344F3450344534203488
:100B08002034203400340A30A0000030A1000A301C
:100B1800F2000030F3002608F5002508F400B4249C
:100B28007308A3007208A200E8242008303EFF23BF
:100B38002E30FF230A30A0000030A1002608A300B1
:100B48002508A200E8242008303EFF2308002300DF
:100B58008C1221008C1624008C1618303D0095004C
:100B680005303C00A00023000C1121000C152400C6
:100B78000C1519303D00920002303C00A100240001
:100B880094010830950096011330920095160800DC
:100B9800F5000830F3007308F600F7017508F30054
:100BA8000730F336890BD52D77357304F4007408B4
:100BB800F7000310F50D72087702031CE52D720883
:100BC800F7020130F602031DD22D77080800200035
:100BD8003808FF3E9E00FB01C0307B020318002E40
:100BE8007B08303E860087012030873D8101013037
:100BF800F2007208FB07F02DFB0120001113210001
:100C08009D1420001F151F1D0800072EF601F7016F
:100C1800721C122E7408F6077508F73D0130F4357A
:100C2800F50D890B132E0130F336F20C890B182EB3
:100C380072087304031D0C2E7708F3007608F2007F
:100C48000800A52678307B2600307B268D307B2651
:100C580014307B2681307B26FF307B26C8307B26EC
:100C6800A1307B26AF307B26A026080075088400BB
:100C780076088500120003190800750884007608B4
:100C880085000008FF230130F5070030F63D3A2EB5
:100C980023000C1621000C1610309D0020309E00F9
:100CA8001D14093020009F009110210091140B178A
:100CB8008B170800F500F401751C662E7208F30006
:100CC8007308F4070310F20D0310F50C7508031DE3
:100CD800602E740808006400800101310130FE02B2
:100CE8000030FF3B7F087E0403190034702EF200A9
:100CF8002000911172082400910020009119080029
:100D0800812E59343A3431342E3430345634203428
:100D1800203400342D342D342D342D342D342D34FD
:100D28002D34203400344F345334433449344C3454
:100D38004C344F342034003424001615161D080096
:100D4800A22E24001614161C0800A72E20342034C6
:100D58003034003450343A34003458343A3400349F
:020000040001F9
:08000000FF3FFF3FFF3FFF3F00
:08000E008C3FF33FFF3FFF3F71
:00000001FF
