:020000002628B0
:100008007E1480312000911C2428911021009D101D
:10001800C0307B02031822287B08303EF000F10133
:100028002030F13D70088600710887001C088100A7
:100038000130F0007008FB079D14242820001F11D0
:100048007E10090027283030840020308500C03019
:10005800FE000030FF008126FB012000B301B4013F
:10006800B501B601B7017E102000DF2C0034003442
:100078000034003400342E340034003406340034A4
:100088000634003414343E34143400342C343E34F2
:100098001434003412340834243400341C342A3420
:1000A8003434003404340234003400341C34223430
:1000B80000340034003422341C3400342A341C3414
:1000C8002A34003408343E340834003420341034E0
:1000D8000034003408340834083400340034203440
:1000E8000034003420341C34023400341C342234EC
:1000F8001C340034003404343E34003432342A349E
:10010800243400342A342A34143400340E340834A5
:100118003E3400342E342A34123400341C342A3449
:1001280012340034223412340E34003414342A3495
:100138001434003424342A341C3400340034143485
:1001480000340034203414340034003408341434B7
:100158002234003414341434143400342234143463
:100168000834003402342A34043400343A342A344B
:100178003E3400343C3412343C3400343E342A34A7
:10018800143400341C342234223400343E342234F3
:100198001C3400343E342A342A3400343E340A34C1
:1001A8000A3400341C3422343A3400343E340834DF
:1001B8003E34003422343E34223400342034223495
:1001C8001E3400343E340834343400343E34203491
:1001D800203400343E3404343E3400343E340C348D
:1001E80018343E343E3422343E3400343E340A342B
:1001F800043400341C3432342C3400343E340A3491
:100208003434003424342A341234003402343E3472
:10021800023400343E3420343E3400341E3420345A
:100228001E3400343E3410343E340034363408343E
:1002380036340034063438340634003432342A3440
:100248002634003400343E34223400341A343C342A
:100258001A34003422343E34003400340434023476
:10026800043400342034203420340034B501FF3005
:10027800F2007208B400B301C030330203188829B1
:100288000230F2003308303E860087012030873D77
:10029800720881073308303E860087012030873D89
:1002A8000310810C0310810C3308303E860087014F
:1002B8002030873D0108350203186C293308303E89
:1002C800860087012030873D0108F2007208B500DA
:1002D8003308303E860087012030873D340801020C
:1002E800031880293308303E860087012030873D77
:1002F8000108F2007208B4000130F2007208B30776
:10030800C0303302031C44293408F2000130F236AD
:10031800890B8B2935367207F3007308F600B30191
:10032800C03033020318B8293308F200F3012F3024
:10033800F4002030F5007208740786007308753DD4
:100348008700010876020318B3293308303E860077
:1003580087012030873D010876020318B82901304B
:10036800F2007208B3079429C0303306031DC2296E
:10037800B601FF30F2007208B30008000130F20045
:100388007208B307B601C03033020318EF293308E7
:10039800F200F3012F30F4002030F50072087407E2
:1003A80086007308753D8700010876020318E62960
:1003B8003308303E860087012030873D01087602E9
:1003C8000318EF290130F2007208B6070130F20075
:1003D8007208B307C7293030F2007208B300C03082
:1003E800330203181A2A3308F200F3012F30F400FD
:1003F8002030F5007208740786007308753D870081
:10040800010876020318122A3308303E8600870155
:100418002030873D0108760203181A2A0130F200BD
:100428007208B307C0303302031CF7293030B30217
:100438000800B72678308D2600308D2620308D268E
:1004480001308D2621308D2620308D267F308D2657
:1004580022308D2600308D2607308D26B226B7260D
:1004680078308D2640308D26A90155308D260130F3
:10047800A0002008A90708302902031C392A3308DC
:10048800013EA0002008AA003308603EA00000300A
:1004980003180130A1002108803A803C031D562A28
:1004A80020082A020318DD2A20002A08303E860088
:1004B80087012030873D0108A0002008A6002A08EF
:1004C800A000A1012F30A2002030A300200822079D
:1004D80086002108233D87000108A4002408A700FE
:1004E800270826020318932A2A08A000A1012F3002
:1004F800A2002030A3002008220786002108233DFF
:1005080087000108A4002408A6002A08303E8600B7
:1005180087012030873D0108A0002008A70040304F
:10052800A0002008A80028080319D82AA501A901B5
:100538000310A50C28082602031CA72A270828024E
:10054800031CA72AA5170C30A0002008F2002808D1
:10055800EF25033A031DB82A331CB42A2A18B72AF0
:10056800331C2A18B82AA5170130A8020130A000A8
:100578002008A90708302902031C9D2A1830F20018
:100588000030F30033082A02F400F501031CF503D8
:10059800EE2372087304031DD52A5530A0002008E5
:1005A800A50425088D26972A0130A0002008AA074F
:1005B800482AB2260800B72678308D2600308D26C6
:1005C80020308D2600308D2621308D2600308D2656
:1005D8001F308D2622308D2600308D2607308D263F
:1005E800B226B72678308D2640308D26A930F50002
:1005F8008630F6005D26A130F5008530F6005D26D0
:10060800A030F5008630F6005D26C330F500863050
:10061800F6005D2620003708AE00AF012E08F20074
:100628002F08F3001830F4000030F5002D26730869
:10063800AD007208AC005E259730F5008630F600F4
:100648005D260030752435083725013075243408B7
:100658003725C030F5008630F6005D2620003608C4
:10066800AE00AF012E08F2002F08F3003708B000E3
:10067800B1013008F4003108F5002D267308AD00EB
:100688007208AC005E25B226080025082604031D62
:10069800532BBC30F5008630F6005D260800AB0110
:1006A8007C2B250826040319802B0A30A000003073
:1006B800A1002608A3002508A2000B252008303E2B
:1006C800A7002B08283E86008701270881000A30EA
:1006D800F2000030F3002608F5002508F400AB24EA
:1006E8007308A6007208A5000130A7002708AB0709
:1006F80003302B02031C552B03302B020318972BB6
:100708002030A7002B08283E860087012708810093
:100718000130A7002708AB07802B2B08283E86004E
:100728008701010833240130AB022B0A03190800A2
:10073800912BA501A11FA72BA009A109A00A0319A4
:10074800A10AA501A50AA31FB22BA209A309A20AFF
:100758000319A30A0130F8007808A506A601A70125
:10076800200821040319E12BA401A40AA11BC62B0C
:100778000130A035A10D890BBD2B0130F800780898
:10078800A407BA2B0130A635A70D890BC72B210862
:100798002302031DD12B20082202031CD82B20087A
:1007A800A2022108A33B26140130A136A00C890B14
:1007B800D92B0130A402031DC62B25080319E92BE8
:1007C800A609A709A60A0319A70A2708A100260847
:1007D800A0000800F801F51FF82BF409F509F40A40
:1007E8000319F50AF801F80AF31FFF2BF209F309B8
:1007F800F20A0319F30A720873040319262CF70185
:10080800F70AF31B112C0130F235F30D890B082C74
:100818000130F6007608F707052C73087502031DEA
:10082800172C72087402031C1D2C7208F40273083A
:10083800F53B0130F336F20C890B1E2C0130F70220
:10084800031D112C780803192E2CF409F509F40A54
:100858000319F50A7508F3007408F2000800F4009B
:1008680020307402031C3C2C5F307402031C3E2CA5
:10087800F401402C2030F4020310F40D0310F40DA1
:1008880074083A3E840080300318013E8500000851
:100898008D260130F3007308F40774083A3E84008B
:1008A80080300318013E850000088D260130F300D2
:1008B8007308F40774083A3E840080300318013E38
:1008C800850000088D260130F3007308F4077408CA
:1008D8003A3E840080300318013E850000088D26CA
:1008E8000800F4000310F40D0310F40D7408853E9D
:1008F800840085300318013E850000088D260130EC
:10090800F3007308F4077408853E840085300318E3
:10091800013E850000088D260130F3007308F407B6
:100928007408853E840085300318013E8500000860
:100938008D260130F3007308F4077408853E84009F
:1009480085300318013E850000088D260800F70150
:10095800F801720873040319DA2CF901F90AF31B78
:10096800BF2C0130F235F30D890BB62C0130F6009F
:100978007608F907B32C0130F735F80D890BC02C30
:1009880073087502031DCA2C72087402031CD12C4B
:100998007208F4027308F53B77140130F336F20C51
:1009A800890BD22C0130F902031DBF2C7808F30003
:1009B8007708F20008006F26CE2548263030200040
:1009C800B2003208B7000E263A213608031DF22C71
:1009D800EF3037020318082D1030FA2C6130360238
:1009E800031CFE2C370A0319082D0130B200320807
:1009F800B707082D503036020318082D0330370288
:100A0800031C082D0130B702DF221D22E72C200825
:100A180021040319322DA401A40AA11B1D2D0130A4
:100A2800A035A10D890B142D0130FA007A08A4070E
:100A3800112D21082302031D232D20082202031C47
:100A4800292D2008A2022108A33B0130A136A00CC1
:100A5800890B2A2D0130A402031D1D2D2308A10096
:100A68002208A0000800AA003A3033246430A0000D
:100A78000030A1002A08A800A9012808F2002908C6
:100A8800F3004F30F4000030F5002D267308A30062
:100A98007208A2009D232108AC002008AB002C0896
:100AA800A6002B08A500AA259C30F5008630F60084
:100AB8005D26080003302D02E83003192C020318C4
:100AC8006C2D2D08A6002C08A500492305307F2D84
:100AD8006430F2000030F3002D08F5002C08F40013
:100AE800AB247308AD007208AC002D08A6002C08D2
:100AF800A500AA250330752404307524203033243A
:100B0800080004343E340434003410343E341034C5
:100B180000343E341034283400343C343C34383407
:100B2800003428343434143400347C3420343C34D5
:100B38000034243434342C340034533443344F34A4
:100B48005034453420342034203400340A30A00096
:100B58000030A1000A30F2000030F3002608F5004A
:100B68002508F400AB247308A3007208A2000B2523
:100B78002008303E33242E3033240A30A0000030C1
:100B8800A1002608A3002508A2000B252008303E56
:100B98003324080023008C1221008C1624008C16A4
:100BA80018303D00950005303C00A00023000C11D2
:100BB80021000C1524000C1519303D00920002305C
:100BC8003C00A100240094010830950096011330E0
:100BD800920095160800F5000830F3007308F60037
:100BE800F7017508F3000730F336890BF82D7735D0
:100BF8007304F4007408F7000310F50D7208770207
:100C0800031C082E7208F7020130F602031DF52DA9
:100C18007708080020003708FF3E9E00FB01C0301F
:100C28007B020318232E7B08303E86008701203084
:100C3800873D81010130F2007208FB07132EFB018A
:100C48002000111321009D1420001F151F1D0800EE
:100C58002A2EF601F701721C352E7408F60775085E
:100C6800F73D0130F435F50D890B362E0130F3369A
:100C7800F20C890B3B2E72087304031D2F2E770884
:100C8800F3007608F2000800B72678308D26003089
:100C98008D268D308D2614308D2681308D26FF309F
:100CA8008D26C8308D26A1308D26AF308D26B226F0
:100CB80008007508840076088500120003190800EA
:100CC8007508840076088500000833240130F5078C
:100CD8000030F63D5D2E23000C1621000C16103056
:100CE8009D0020309E001D14093020009F009110A7
:100CF800210091140B178B17080064008001013143
:100D08000130FE020030FF3B7F087E0403190034E7
:100D1800822EF20020009111720824009100200018
:100D280091190800932E59343A3431342E34303422
:100D380056342034203400342D342D342D342D34C1
:100D48002D342D342D34203400344F34533443346F
:100D580049344C344C344F342034003424001615B4
:100D6800161D0800B42E24001614161C0800B92EEF
:100D7800203420343034003450343A340034583479
:040D88003A340034C5
:020000040001F9
:08000000FF3FFF3FFF3FFF3F00
:08000E008C3FF33FFF3FFF3F71
:00000001FF
